:04099900F9A4B09974
:06094D00D2B4050DAF0D50
:020953008F080B
:1009550078097C007D007BFF7A0979997E007F0408
:100965001208D0D3E5089404748094805008740963
:080975002508F8E6FF227F00CF
:01097D002257
:0E097E00E4FFFE0FBF00010EBE03F8BFE8F558
:01098C002248
:1008F6007D017C00ED64014C7013C2B3C2B4F50DEA
:10090600AF0D1209538F907C007D028025ED6402A5
:100916004C700FD2B3C2B412094F8F907C007D0386
:100926008010ED64034C700FC2B312094D8F90E432
:10093600FCFD12097E80BDD2B312094D8F907C005A
:070946007D0112097E80AD66
:0300000002098D65
:0C098D00787FE4F6D8FD75810D0208F6B5
:10080000E709F608DFFA8046E709F208DFFA803EDA
:1008100088828C83E709F0A3DFFA8032E309F608C7
:10082000DFFA8078E309F208DFFA807088828C832F
:10083000E309F0A3DFFA806489828A83E0A3F608E3
:10084000DFFA805889828A83E0A3F208DFFA804CBD
:1008500080D280FA80C680D4806980F28033801094
:1008600080A680EA809A80A880DA80E280CA8033FD
:1008700089828A83ECFAE493A3C8C582C8CCC58375
:10088000CCF0A3C8C582C8CCC583CCDFE9DEE78045
:100890000D89828A83E493A3F608DFF9ECFAA9F0C4
:1008A000EDFB2289828A83ECFAE0A3C8C582C8CC1A
:1008B000C583CCF0A3C8C582C8CCC583CCDFEADE33
:1008C000E880DB89828A83E493A3F208DFF980CC95
:1008D00088F0EF60010E4E60C388F0ED2402B4048E
:1008E0000050B9F582EB2402B4040050AF23234535
:0608F00082239008507302
:00000001FF
