:1009AE0057656C636F6D6520746F0056697374754F
:0E09BE006C6120556E697665727369747900FC
:10085500120990D200C201120971D200C201C2026E
:100865001209507BFF7A0979AE1208F37F4012080E
:10087500A57BFF7A0979B91208F320A5051209E9C4
:1008850080F820A60C30A709D200C2011209CC803D
:10089500E930A6E620A7E3D200D2011209CC80DA1E
:1009E900C293C297C296C295C294D292C292D2952C
:0709F900D292C292020A0033
:10097100C293C297C296C295C294D292C292D296A3
:0F098100A2009295A2019294D292C292020A0011
:10095000C297C296C295C294D292C292D297A20076
:100960009296A2019295A2029294D292C292020A07
:010970000086
:1009CC00C293C297C296C295D294D292C292A200FE
:0D09DC009297A2019296D292C292020A0056
:10099000C297C296D295C294C293D292C292120AC0
:0E09A00000D292C292D297D292C292020A0064
:1008A5008F08C293D2977D06120A1792967D05AFDF
:1008B50008120A1792957D04AF08120A179294D26E
:1008C50092C2927D03AF08120A1792977D02AF0874
:1008D500120A1792967D01AF08120A179295E4FD48
:0E08E500AF08120A179294D292C292020A0031
:100800008F0D7D07120A1792977D06AF0D120A17FA
:1008100092967D05AF0D120A1792957D04AF0D12C9
:100820000A179294D293D292C2927D03AF0D120A0C
:100830001792977D02AF0D120A1792967D01AF0DA8
:10084000120A179295E4FDAF0D120A179294D292F4
:05085000C292020A0043
:0608F3008B088A09890A46
:1008F900E4F50BF50CAB08AA09A90A850C82850B4E
:1009090083120923FFFD3395E04D600D12080005A0
:090919000CE50C70E0050B80DC1C
:0109220022B2
:0F0A1700AE05A806EF088003A2E713D8FB132251
:100A0000E4FFEFFD3395E0FCC3ED9432EC64809499
:060A10008050030F80EC92
:010A160022BD
:03000000020A26CB
:0C0A2600787FE4F6D8FD758120020855A9
:10092300BB010CE58229F582E5833AF583E0225089
:1009330006E92582F8E622BBFE06E92582F8E222D3
:0D094300E58229F582E5833AF583E49322ED
:00000001FF
